{
  "_format": "hh-sol-artifact-1",
  "contractName": "Sqrls",
  "sourceName": "contracts/Sqrls.sol",
  "abi": [
    {
      "inputs": [
        {
          "internalType": "uint256",
          "name": "_supply",
          "type": "uint256"
        },
        {
          "internalType": "string",
          "name": "_baseURI",
          "type": "string"
        }
      ],
      "stateMutability": "payable",
      "type": "constructor"
    },
    {
      "inputs": [
        {
          "internalType": "address",
          "name": "sender",
          "type": "address"
        },
        {
          "internalType": "uint256",
          "name": "tokenId",
          "type": "uint256"
        },
        {
          "internalType": "address",
          "name": "owner",
          "type": "address"
        }
      ],
      "name": "ERC721IncorrectOwner",
      "type": "error"
    },
    {
      "inputs": [
        {
          "internalType": "address",
          "name": "operator",
          "type": "address"
        },
        {
          "internalType": "uint256",
          "name": "tokenId",
          "type": "uint256"
        }
      ],
      "name": "ERC721InsufficientApproval",
      "type": "error"
    },
    {
      "inputs": [
        {
          "internalType": "address",
          "name": "approver",
          "type": "address"
        }
      ],
      "name": "ERC721InvalidApprover",
      "type": "error"
    },
    {
      "inputs": [
        {
          "internalType": "address",
          "name": "operator",
          "type": "address"
        }
      ],
      "name": "ERC721InvalidOperator",
      "type": "error"
    },
    {
      "inputs": [
        {
          "internalType": "address",
          "name": "owner",
          "type": "address"
        }
      ],
      "name": "ERC721InvalidOwner",
      "type": "error"
    },
    {
      "inputs": [
        {
          "internalType": "address",
          "name": "receiver",
          "type": "address"
        }
      ],
      "name": "ERC721InvalidReceiver",
      "type": "error"
    },
    {
      "inputs": [
        {
          "internalType": "address",
          "name": "sender",
          "type": "address"
        }
      ],
      "name": "ERC721InvalidSender",
      "type": "error"
    },
    {
      "inputs": [
        {
          "internalType": "uint256",
          "name": "tokenId",
          "type": "uint256"
        }
      ],
      "name": "ERC721NonexistentToken",
      "type": "error"
    },
    {
      "anonymous": false,
      "inputs": [
        {
          "indexed": true,
          "internalType": "address",
          "name": "owner",
          "type": "address"
        },
        {
          "indexed": true,
          "internalType": "address",
          "name": "approved",
          "type": "address"
        },
        {
          "indexed": true,
          "internalType": "uint256",
          "name": "tokenId",
          "type": "uint256"
        }
      ],
      "name": "Approval",
      "type": "event"
    },
    {
      "anonymous": false,
      "inputs": [
        {
          "indexed": true,
          "internalType": "address",
          "name": "owner",
          "type": "address"
        },
        {
          "indexed": true,
          "internalType": "address",
          "name": "operator",
          "type": "address"
        },
        {
          "indexed": false,
          "internalType": "bool",
          "name": "approved",
          "type": "bool"
        }
      ],
      "name": "ApprovalForAll",
      "type": "event"
    },
    {
      "anonymous": false,
      "inputs": [
        {
          "indexed": false,
          "internalType": "uint256",
          "name": "_fromTokenId",
          "type": "uint256"
        },
        {
          "indexed": false,
          "internalType": "uint256",
          "name": "_toTokenId",
          "type": "uint256"
        }
      ],
      "name": "BatchMetadataUpdate",
      "type": "event"
    },
    {
      "anonymous": false,
      "inputs": [
        {
          "indexed": false,
          "internalType": "uint256",
          "name": "_tokenId",
          "type": "uint256"
        }
      ],
      "name": "MetadataUpdate",
      "type": "event"
    },
    {
      "anonymous": false,
      "inputs": [
        {
          "indexed": true,
          "internalType": "address",
          "name": "from",
          "type": "address"
        },
        {
          "indexed": true,
          "internalType": "address",
          "name": "to",
          "type": "address"
        },
        {
          "indexed": true,
          "internalType": "uint256",
          "name": "tokenId",
          "type": "uint256"
        }
      ],
      "name": "Transfer",
      "type": "event"
    },
    {
      "anonymous": false,
      "inputs": [
        {
          "indexed": false,
          "internalType": "uint256",
          "name": "amount",
          "type": "uint256"
        },
        {
          "indexed": false,
          "internalType": "uint256",
          "name": "when",
          "type": "uint256"
        }
      ],
      "name": "Withdrawal",
      "type": "event"
    },
    {
      "inputs": [
        {
          "internalType": "address",
          "name": "to",
          "type": "address"
        },
        {
          "internalType": "uint256",
          "name": "tokenId",
          "type": "uint256"
        }
      ],
      "name": "approve",
      "outputs": [],
      "stateMutability": "nonpayable",
      "type": "function"
    },
    {
      "inputs": [
        {
          "internalType": "address",
          "name": "owner",
          "type": "address"
        }
      ],
      "name": "balanceOf",
      "outputs": [
        {
          "internalType": "uint256",
          "name": "",
          "type": "uint256"
        }
      ],
      "stateMutability": "view",
      "type": "function"
    },
    {
      "inputs": [],
      "name": "baseURI",
      "outputs": [
        {
          "internalType": "string",
          "name": "",
          "type": "string"
        }
      ],
      "stateMutability": "view",
      "type": "function"
    },
    {
      "inputs": [
        {
          "internalType": "uint256",
          "name": "tokenId",
          "type": "uint256"
        }
      ],
      "name": "getApproved",
      "outputs": [
        {
          "internalType": "address",
          "name": "",
          "type": "address"
        }
      ],
      "stateMutability": "view",
      "type": "function"
    },
    {
      "inputs": [
        {
          "internalType": "address",
          "name": "owner",
          "type": "address"
        },
        {
          "internalType": "address",
          "name": "operator",
          "type": "address"
        }
      ],
      "name": "isApprovedForAll",
      "outputs": [
        {
          "internalType": "bool",
          "name": "",
          "type": "bool"
        }
      ],
      "stateMutability": "view",
      "type": "function"
    },
    {
      "inputs": [],
      "name": "maxSupply",
      "outputs": [
        {
          "internalType": "uint256",
          "name": "",
          "type": "uint256"
        }
      ],
      "stateMutability": "view",
      "type": "function"
    },
    {
      "inputs": [],
      "name": "mint",
      "outputs": [
        {
          "internalType": "uint256",
          "name": "",
          "type": "uint256"
        }
      ],
      "stateMutability": "payable",
      "type": "function"
    },
    {
      "inputs": [],
      "name": "name",
      "outputs": [
        {
          "internalType": "string",
          "name": "",
          "type": "string"
        }
      ],
      "stateMutability": "view",
      "type": "function"
    },
    {
      "inputs": [],
      "name": "owner",
      "outputs": [
        {
          "internalType": "address payable",
          "name": "",
          "type": "address"
        }
      ],
      "stateMutability": "view",
      "type": "function"
    },
    {
      "inputs": [
        {
          "internalType": "uint256",
          "name": "tokenId",
          "type": "uint256"
        }
      ],
      "name": "ownerOf",
      "outputs": [
        {
          "internalType": "address",
          "name": "",
          "type": "address"
        }
      ],
      "stateMutability": "view",
      "type": "function"
    },
    {
      "inputs": [
        {
          "internalType": "address",
          "name": "from",
          "type": "address"
        },
        {
          "internalType": "address",
          "name": "to",
          "type": "address"
        },
        {
          "internalType": "uint256",
          "name": "tokenId",
          "type": "uint256"
        }
      ],
      "name": "safeTransferFrom",
      "outputs": [],
      "stateMutability": "nonpayable",
      "type": "function"
    },
    {
      "inputs": [
        {
          "internalType": "address",
          "name": "from",
          "type": "address"
        },
        {
          "internalType": "address",
          "name": "to",
          "type": "address"
        },
        {
          "internalType": "uint256",
          "name": "tokenId",
          "type": "uint256"
        },
        {
          "internalType": "bytes",
          "name": "data",
          "type": "bytes"
        }
      ],
      "name": "safeTransferFrom",
      "outputs": [],
      "stateMutability": "nonpayable",
      "type": "function"
    },
    {
      "inputs": [
        {
          "internalType": "address",
          "name": "operator",
          "type": "address"
        },
        {
          "internalType": "bool",
          "name": "approved",
          "type": "bool"
        }
      ],
      "name": "setApprovalForAll",
      "outputs": [],
      "stateMutability": "nonpayable",
      "type": "function"
    },
    {
      "inputs": [
        {
          "internalType": "bytes4",
          "name": "interfaceId",
          "type": "bytes4"
        }
      ],
      "name": "supportsInterface",
      "outputs": [
        {
          "internalType": "bool",
          "name": "",
          "type": "bool"
        }
      ],
      "stateMutability": "view",
      "type": "function"
    },
    {
      "inputs": [],
      "name": "symbol",
      "outputs": [
        {
          "internalType": "string",
          "name": "",
          "type": "string"
        }
      ],
      "stateMutability": "view",
      "type": "function"
    },
    {
      "inputs": [
        {
          "internalType": "uint256",
          "name": "tokenId",
          "type": "uint256"
        }
      ],
      "name": "tokenURI",
      "outputs": [
        {
          "internalType": "string",
          "name": "",
          "type": "string"
        }
      ],
      "stateMutability": "view",
      "type": "function"
    },
    {
      "inputs": [
        {
          "internalType": "address",
          "name": "from",
          "type": "address"
        },
        {
          "internalType": "address",
          "name": "to",
          "type": "address"
        },
        {
          "internalType": "uint256",
          "name": "tokenId",
          "type": "uint256"
        }
      ],
      "name": "transferFrom",
      "outputs": [],
      "stateMutability": "nonpayable",
      "type": "function"
    },
    {
      "inputs": [],
      "name": "withdraw",
      "outputs": [],
      "stateMutability": "nonpayable",
      "type": "function"
    }
  ],
  "bytecode": "0x60806040526000600a5560405162002fd138038062002fd183398181016040528101906200002e9190620002f0565b6040518060400160405280600581526020017f5371726c730000000000000000000000000000000000000000000000000000008152506040518060400160405280600581526020017f5351524c530000000000000000000000000000000000000000000000000000008152508160009081620000ab919062000597565b508060019081620000bd919062000597565b505050816007819055508060099081620000d8919062000597565b5033600860006101000a81548173ffffffffffffffffffffffffffffffffffffffff021916908373ffffffffffffffffffffffffffffffffffffffff16021790555050506200067e565b6000604051905090565b600080fd5b600080fd5b6000819050919050565b6200014b8162000136565b81146200015757600080fd5b50565b6000815190506200016b8162000140565b92915050565b600080fd5b600080fd5b6000601f19601f8301169050919050565b7f4e487b7100000000000000000000000000000000000000000000000000000000600052604160045260246000fd5b620001c6826200017b565b810181811067ffffffffffffffff82111715620001e857620001e76200018c565b5b80604052505050565b6000620001fd62000122565b90506200020b8282620001bb565b919050565b600067ffffffffffffffff8211156200022e576200022d6200018c565b5b62000239826200017b565b9050602081019050919050565b60005b838110156200026657808201518184015260208101905062000249565b60008484015250505050565b600062000289620002838462000210565b620001f1565b905082815260208101848484011115620002a857620002a762000176565b5b620002b584828562000246565b509392505050565b600082601f830112620002d557620002d462000171565b5b8151620002e784826020860162000272565b91505092915050565b600080604083850312156200030a57620003096200012c565b5b60006200031a858286016200015a565b925050602083015167ffffffffffffffff8111156200033e576200033d62000131565b5b6200034c85828601620002bd565b9150509250929050565b600081519050919050565b7f4e487b7100000000000000000000000000000000000000000000000000000000600052602260045260246000fd5b60006002820490506001821680620003a957607f821691505b602082108103620003bf57620003be62000361565b5b50919050565b60008190508160005260206000209050919050565b60006020601f8301049050919050565b600082821b905092915050565b600060088302620004297fffffffffffffffffffffffffffffffffffffffffffffffffffffffffffffffff82620003ea565b620004358683620003ea565b95508019841693508086168417925050509392505050565b6000819050919050565b600062000478620004726200046c8462000136565b6200044d565b62000136565b9050919050565b6000819050919050565b620004948362000457565b620004ac620004a3826200047f565b848454620003f7565b825550505050565b600090565b620004c3620004b4565b620004d081848462000489565b505050565b5b81811015620004f857620004ec600082620004b9565b600181019050620004d6565b5050565b601f82111562000547576200051181620003c5565b6200051c84620003da565b810160208510156200052c578190505b620005446200053b85620003da565b830182620004d5565b50505b505050565b600082821c905092915050565b60006200056c600019846008026200054c565b1980831691505092915050565b600062000587838362000559565b9150826002028217905092915050565b620005a28262000356565b67ffffffffffffffff811115620005be57620005bd6200018c565b5b620005ca825462000390565b620005d7828285620004fc565b600060209050601f8311600181146200060f5760008415620005fa578287015190505b62000606858262000579565b86555062000676565b601f1984166200061f86620003c5565b60005b82811015620006495784890151825560018201915060208501945060208101905062000622565b8683101562000669578489015162000665601f89168262000559565b8355505b6001600288020188555050505b505050505050565b612943806200068e6000396000f3fe6080604052600436106101095760003560e01c80636c0360eb11610095578063a22cb46511610064578063a22cb4651461035e578063b88d4fde14610387578063c87b56dd146103b0578063d5abeb01146103ed578063e985e9c51461041857610109565b80636c0360eb146102a057806370a08231146102cb5780638da5cb5b1461030857806395d89b411461033357610109565b80631249c58b116100dc5780631249c58b146101dc57806323b872dd146101fa5780633ccfd60b1461022357806342842e0e1461023a5780636352211e1461026357610109565b806301ffc9a71461010e57806306fdde031461014b578063081812fc14610176578063095ea7b3146101b3575b600080fd5b34801561011a57600080fd5b5061013560048036038101906101309190611c14565b610455565b6040516101429190611c5c565b60405180910390f35b34801561015757600080fd5b506101606104b6565b60405161016d9190611d07565b60405180910390f35b34801561018257600080fd5b5061019d60048036038101906101989190611d5f565b610548565b6040516101aa9190611dcd565b60405180910390f35b3480156101bf57600080fd5b506101da60048036038101906101d59190611e14565b610564565b005b6101e461057a565b6040516101f19190611e63565b60405180910390f35b34801561020657600080fd5b50610221600480360381019061021c9190611e7e565b610678565b005b34801561022f57600080fd5b5061023861077a565b005b34801561024657600080fd5b50610261600480360381019061025c9190611e7e565b6108ae565b005b34801561026f57600080fd5b5061028a60048036038101906102859190611d5f565b6108ce565b6040516102979190611dcd565b60405180910390f35b3480156102ac57600080fd5b506102b56108e0565b6040516102c29190611d07565b60405180910390f35b3480156102d757600080fd5b506102f260048036038101906102ed9190611ed1565b61096e565b6040516102ff9190611e63565b60405180910390f35b34801561031457600080fd5b5061031d610a28565b60405161032a9190611f1f565b60405180910390f35b34801561033f57600080fd5b50610348610a4e565b6040516103559190611d07565b60405180910390f35b34801561036a57600080fd5b5061038560048036038101906103809190611f66565b610ae0565b005b34801561039357600080fd5b506103ae60048036038101906103a991906120db565b610af6565b005b3480156103bc57600080fd5b506103d760048036038101906103d29190611d5f565b610b13565b6040516103e49190611d07565b60405180910390f35b3480156103f957600080fd5b50610402610c26565b60405161040f9190611e63565b60405180910390f35b34801561042457600080fd5b5061043f600480360381019061043a919061215e565b610c2c565b60405161044c9190611c5c565b60405180910390f35b6000634906490660e01b7bffffffffffffffffffffffffffffffffffffffffffffffffffffffff1916827bffffffffffffffffffffffffffffffffffffffffffffffffffffffff191614806104af57506104ae82610cc0565b5b9050919050565b6060600080546104c5906121cd565b80601f01602080910402602001604051908101604052809291908181526020018280546104f1906121cd565b801561053e5780601f106105135761010080835404028352916020019161053e565b820191906000526020600020905b81548152906001019060200180831161052157829003601f168201915b5050505050905090565b600061055382610da2565b5061055d82610e2a565b9050919050565b6105768282610571610e67565b610e6f565b5050565b6000600754600a54106105c2576040517f08c379a00000000000000000000000000000000000000000000000000000000081526004016105b99061224a565b60405180910390fd5b662386f26fc1000034101561060c576040517f08c379a0000000000000000000000000000000000000000000000000000000008152600401610603906122b6565b60405180910390fd5b6000600a600081548092919061062190612305565b9190505590506106313382610e81565b61067181600961064c600185610647919061234d565b610f7a565b60405160200161065d929190612455565b604051602081830303815290604052611048565b8091505090565b600073ffffffffffffffffffffffffffffffffffffffff168273ffffffffffffffffffffffffffffffffffffffff16036106ea5760006040517f64a0ae920000000000000000000000000000000000000000000000000000000081526004016106e19190611dcd565b60405180910390fd5b60006106fe83836106f9610e67565b6110a4565b90508373ffffffffffffffffffffffffffffffffffffffff168173ffffffffffffffffffffffffffffffffffffffff1614610774578382826040517f64283d7b00000000000000000000000000000000000000000000000000000000815260040161076b93929190612479565b60405180910390fd5b50505050565b600860009054906101000a900473ffffffffffffffffffffffffffffffffffffffff1673ffffffffffffffffffffffffffffffffffffffff163373ffffffffffffffffffffffffffffffffffffffff161461080a576040517f08c379a0000000000000000000000000000000000000000000000000000000008152600401610801906124fc565b60405180910390fd5b7fbf2ed60bd5b5965d685680c01195c9514e4382e28e3a5a2d2d5244bf59411b93474260405161083b92919061251c565b60405180910390a1600860009054906101000a900473ffffffffffffffffffffffffffffffffffffffff1673ffffffffffffffffffffffffffffffffffffffff166108fc479081150290604051600060405180830381858888f193505050501580156108ab573d6000803e3d6000fd5b50565b6108c983838360405180602001604052806000815250610af6565b505050565b60006108d982610da2565b9050919050565b600980546108ed906121cd565b80601f0160208091040260200160405190810160405280929190818152602001828054610919906121cd565b80156109665780601f1061093b57610100808354040283529160200191610966565b820191906000526020600020905b81548152906001019060200180831161094957829003601f168201915b505050505081565b60008073ffffffffffffffffffffffffffffffffffffffff168273ffffffffffffffffffffffffffffffffffffffff16036109e15760006040517f89c62b640000000000000000000000000000000000000000000000000000000081526004016109d89190611dcd565b60405180910390fd5b600360008373ffffffffffffffffffffffffffffffffffffffff1673ffffffffffffffffffffffffffffffffffffffff168152602001908152602001600020549050919050565b600860009054906101000a900473ffffffffffffffffffffffffffffffffffffffff1681565b606060018054610a5d906121cd565b80601f0160208091040260200160405190810160405280929190818152602001828054610a89906121cd565b8015610ad65780601f10610aab57610100808354040283529160200191610ad6565b820191906000526020600020905b815481529060010190602001808311610ab957829003601f168201915b5050505050905090565b610af2610aeb610e67565b83836112be565b5050565b610b01848484610678565b610b0d8484848461142d565b50505050565b6060610b1e82610da2565b506000600660008481526020019081526020016000208054610b3f906121cd565b80601f0160208091040260200160405190810160405280929190818152602001828054610b6b906121cd565b8015610bb85780601f10610b8d57610100808354040283529160200191610bb8565b820191906000526020600020905b815481529060010190602001808311610b9b57829003601f168201915b505050505090506000610bc96115e4565b90506000815103610bde578192505050610c21565b600082511115610c13578082604051602001610bfb929190612545565b60405160208183030381529060405292505050610c21565b610c1c846115fb565b925050505b919050565b60075481565b6000600560008473ffffffffffffffffffffffffffffffffffffffff1673ffffffffffffffffffffffffffffffffffffffff16815260200190815260200160002060008373ffffffffffffffffffffffffffffffffffffffff1673ffffffffffffffffffffffffffffffffffffffff16815260200190815260200160002060009054906101000a900460ff16905092915050565b60007f80ac58cd000000000000000000000000000000000000000000000000000000007bffffffffffffffffffffffffffffffffffffffffffffffffffffffff1916827bffffffffffffffffffffffffffffffffffffffffffffffffffffffff19161480610d8b57507f5b5e139f000000000000000000000000000000000000000000000000000000007bffffffffffffffffffffffffffffffffffffffffffffffffffffffff1916827bffffffffffffffffffffffffffffffffffffffffffffffffffffffff1916145b80610d9b5750610d9a82611664565b5b9050919050565b600080610dae836116ce565b9050600073ffffffffffffffffffffffffffffffffffffffff168173ffffffffffffffffffffffffffffffffffffffff1603610e2157826040517f7e273289000000000000000000000000000000000000000000000000000000008152600401610e189190611e63565b60405180910390fd5b80915050919050565b60006004600083815260200190815260200160002060009054906101000a900473ffffffffffffffffffffffffffffffffffffffff169050919050565b600033905090565b610e7c838383600161170b565b505050565b600073ffffffffffffffffffffffffffffffffffffffff168273ffffffffffffffffffffffffffffffffffffffff1603610ef35760006040517f64a0ae92000000000000000000000000000000000000000000000000000000008152600401610eea9190611dcd565b60405180910390fd5b6000610f01838360006110a4565b9050600073ffffffffffffffffffffffffffffffffffffffff168173ffffffffffffffffffffffffffffffffffffffff1614610f755760006040517f73c6ac6e000000000000000000000000000000000000000000000000000000008152600401610f6c9190611dcd565b60405180910390fd5b505050565b606060006001610f89846118d0565b01905060008167ffffffffffffffff811115610fa857610fa7611fb0565b5b6040519080825280601f01601f191660200182016040528015610fda5781602001600182028036833780820191505090505b509050600082602001820190505b60011561103d578080600190039150507f3031323334353637383961626364656600000000000000000000000000000000600a86061a8153600a858161103157611030612569565b5b04945060008503610fe8575b819350505050919050565b80600660008481526020019081526020016000209081611068919061272f565b507ff8e1a15aba9398e019f0b49df1a4fde98ee17ae345cb5f6b5e2c27f5033e8ce7826040516110989190611e63565b60405180910390a15050565b6000806110b0846116ce565b9050600073ffffffffffffffffffffffffffffffffffffffff168373ffffffffffffffffffffffffffffffffffffffff16146110f2576110f1818486611a23565b5b600073ffffffffffffffffffffffffffffffffffffffff168173ffffffffffffffffffffffffffffffffffffffff16146111835761113460008560008061170b565b6001600360008373ffffffffffffffffffffffffffffffffffffffff1673ffffffffffffffffffffffffffffffffffffffff168152602001908152602001600020600082825403925050819055505b600073ffffffffffffffffffffffffffffffffffffffff168573ffffffffffffffffffffffffffffffffffffffff1614611206576001600360008773ffffffffffffffffffffffffffffffffffffffff1673ffffffffffffffffffffffffffffffffffffffff168152602001908152602001600020600082825401925050819055505b846002600086815260200190815260200160002060006101000a81548173ffffffffffffffffffffffffffffffffffffffff021916908373ffffffffffffffffffffffffffffffffffffffff160217905550838573ffffffffffffffffffffffffffffffffffffffff168273ffffffffffffffffffffffffffffffffffffffff167fddf252ad1be2c89b69c2b068fc378daa952ba7f163c4a11628f55a4df523b3ef60405160405180910390a4809150509392505050565b600073ffffffffffffffffffffffffffffffffffffffff168273ffffffffffffffffffffffffffffffffffffffff160361132f57816040517f5b08ba180000000000000000000000000000000000000000000000000000000081526004016113269190611dcd565b60405180910390fd5b80600560008573ffffffffffffffffffffffffffffffffffffffff1673ffffffffffffffffffffffffffffffffffffffff16815260200190815260200160002060008473ffffffffffffffffffffffffffffffffffffffff1673ffffffffffffffffffffffffffffffffffffffff16815260200190815260200160002060006101000a81548160ff0219169083151502179055508173ffffffffffffffffffffffffffffffffffffffff168373ffffffffffffffffffffffffffffffffffffffff167f17307eab39ab6107e8899845ad3d59bd9653f200f220920489ca2b5937696c31836040516114209190611c5c565b60405180910390a3505050565b60008373ffffffffffffffffffffffffffffffffffffffff163b11156115de578273ffffffffffffffffffffffffffffffffffffffff1663150b7a02611471610e67565b8685856040518563ffffffff1660e01b81526004016114939493929190612856565b6020604051808303816000875af19250505080156114cf57506040513d601f19601f820116820180604052508101906114cc91906128b7565b60015b611553573d80600081146114ff576040519150601f19603f3d011682016040523d82523d6000602084013e611504565b606091505b50600081510361154b57836040517f64a0ae920000000000000000000000000000000000000000000000000000000081526004016115429190611dcd565b60405180910390fd5b805181602001fd5b63150b7a0260e01b7bffffffffffffffffffffffffffffffffffffffffffffffffffffffff1916817bffffffffffffffffffffffffffffffffffffffffffffffffffffffff1916146115dc57836040517f64a0ae920000000000000000000000000000000000000000000000000000000081526004016115d39190611dcd565b60405180910390fd5b505b50505050565b606060405180602001604052806000815250905090565b606061160682610da2565b5060006116116115e4565b90506000815111611631576040518060200160405280600081525061165c565b8061163b84610f7a565b60405160200161164c929190612545565b6040516020818303038152906040525b915050919050565b60007f01ffc9a7000000000000000000000000000000000000000000000000000000007bffffffffffffffffffffffffffffffffffffffffffffffffffffffff1916827bffffffffffffffffffffffffffffffffffffffffffffffffffffffff1916149050919050565b60006002600083815260200190815260200160002060009054906101000a900473ffffffffffffffffffffffffffffffffffffffff169050919050565b80806117445750600073ffffffffffffffffffffffffffffffffffffffff168273ffffffffffffffffffffffffffffffffffffffff1614155b1561187857600061175484610da2565b9050600073ffffffffffffffffffffffffffffffffffffffff168373ffffffffffffffffffffffffffffffffffffffff16141580156117bf57508273ffffffffffffffffffffffffffffffffffffffff168173ffffffffffffffffffffffffffffffffffffffff1614155b80156117d257506117d08184610c2c565b155b1561181457826040517fa9fbf51f00000000000000000000000000000000000000000000000000000000815260040161180b9190611dcd565b60405180910390fd5b811561187657838573ffffffffffffffffffffffffffffffffffffffff168273ffffffffffffffffffffffffffffffffffffffff167f8c5be1e5ebec7d5bd14f71427d1e84f3dd0314c0f7b2291e5b200ac8c7c3b92560405160405180910390a45b505b836004600085815260200190815260200160002060006101000a81548173ffffffffffffffffffffffffffffffffffffffff021916908373ffffffffffffffffffffffffffffffffffffffff16021790555050505050565b600080600090507a184f03e93ff9f4daa797ed6e38ed64bf6a1f010000000000000000831061192e577a184f03e93ff9f4daa797ed6e38ed64bf6a1f010000000000000000838161192457611923612569565b5b0492506040810190505b6d04ee2d6d415b85acef8100000000831061196b576d04ee2d6d415b85acef8100000000838161196157611960612569565b5b0492506020810190505b662386f26fc10000831061199a57662386f26fc1000083816119905761198f612569565b5b0492506010810190505b6305f5e10083106119c3576305f5e10083816119b9576119b8612569565b5b0492506008810190505b61271083106119e85761271083816119de576119dd612569565b5b0492506004810190505b60648310611a0b5760648381611a0157611a00612569565b5b0492506002810190505b600a8310611a1a576001810190505b80915050919050565b611a2e838383611ae7565b611ae257600073ffffffffffffffffffffffffffffffffffffffff168373ffffffffffffffffffffffffffffffffffffffff1603611aa357806040517f7e273289000000000000000000000000000000000000000000000000000000008152600401611a9a9190611e63565b60405180910390fd5b81816040517f177e802f000000000000000000000000000000000000000000000000000000008152600401611ad99291906128e4565b60405180910390fd5b505050565b60008073ffffffffffffffffffffffffffffffffffffffff168373ffffffffffffffffffffffffffffffffffffffff1614158015611b9f57508273ffffffffffffffffffffffffffffffffffffffff168473ffffffffffffffffffffffffffffffffffffffff161480611b605750611b5f8484610c2c565b5b80611b9e57508273ffffffffffffffffffffffffffffffffffffffff16611b8683610e2a565b73ffffffffffffffffffffffffffffffffffffffff16145b5b90509392505050565b6000604051905090565b600080fd5b600080fd5b60007fffffffff0000000000000000000000000000000000000000000000000000000082169050919050565b611bf181611bbc565b8114611bfc57600080fd5b50565b600081359050611c0e81611be8565b92915050565b600060208284031215611c2a57611c29611bb2565b5b6000611c3884828501611bff565b91505092915050565b60008115159050919050565b611c5681611c41565b82525050565b6000602082019050611c716000830184611c4d565b92915050565b600081519050919050565b600082825260208201905092915050565b60005b83811015611cb1578082015181840152602081019050611c96565b60008484015250505050565b6000601f19601f8301169050919050565b6000611cd982611c77565b611ce38185611c82565b9350611cf3818560208601611c93565b611cfc81611cbd565b840191505092915050565b60006020820190508181036000830152611d218184611cce565b905092915050565b6000819050919050565b611d3c81611d29565b8114611d4757600080fd5b50565b600081359050611d5981611d33565b92915050565b600060208284031215611d7557611d74611bb2565b5b6000611d8384828501611d4a565b91505092915050565b600073ffffffffffffffffffffffffffffffffffffffff82169050919050565b6000611db782611d8c565b9050919050565b611dc781611dac565b82525050565b6000602082019050611de26000830184611dbe565b92915050565b611df181611dac565b8114611dfc57600080fd5b50565b600081359050611e0e81611de8565b92915050565b60008060408385031215611e2b57611e2a611bb2565b5b6000611e3985828601611dff565b9250506020611e4a85828601611d4a565b9150509250929050565b611e5d81611d29565b82525050565b6000602082019050611e786000830184611e54565b92915050565b600080600060608486031215611e9757611e96611bb2565b5b6000611ea586828701611dff565b9350506020611eb686828701611dff565b9250506040611ec786828701611d4a565b9150509250925092565b600060208284031215611ee757611ee6611bb2565b5b6000611ef584828501611dff565b91505092915050565b6000611f0982611d8c565b9050919050565b611f1981611efe565b82525050565b6000602082019050611f346000830184611f10565b92915050565b611f4381611c41565b8114611f4e57600080fd5b50565b600081359050611f6081611f3a565b92915050565b60008060408385031215611f7d57611f7c611bb2565b5b6000611f8b85828601611dff565b9250506020611f9c85828601611f51565b9150509250929050565b600080fd5b600080fd5b7f4e487b7100000000000000000000000000000000000000000000000000000000600052604160045260246000fd5b611fe882611cbd565b810181811067ffffffffffffffff8211171561200757612006611fb0565b5b80604052505050565b600061201a611ba8565b90506120268282611fdf565b919050565b600067ffffffffffffffff82111561204657612045611fb0565b5b61204f82611cbd565b9050602081019050919050565b82818337600083830152505050565b600061207e6120798461202b565b612010565b90508281526020810184848401111561209a57612099611fab565b5b6120a584828561205c565b509392505050565b600082601f8301126120c2576120c1611fa6565b5b81356120d284826020860161206b565b91505092915050565b600080600080608085870312156120f5576120f4611bb2565b5b600061210387828801611dff565b945050602061211487828801611dff565b935050604061212587828801611d4a565b925050606085013567ffffffffffffffff81111561214657612145611bb7565b5b612152878288016120ad565b91505092959194509250565b6000806040838503121561217557612174611bb2565b5b600061218385828601611dff565b925050602061219485828601611dff565b9150509250929050565b7f4e487b7100000000000000000000000000000000000000000000000000000000600052602260045260246000fd5b600060028204905060018216806121e557607f821691505b6020821081036121f8576121f761219e565b5b50919050565b7f4e6f206d6f7265204e46547320746f206d696e74210000000000000000000000600082015250565b6000612234601583611c82565b915061223f826121fe565b602082019050919050565b6000602082019050818103600083015261226381612227565b9050919050565b7f53656e64206174206c6561737420302e30312045544821000000000000000000600082015250565b60006122a0601783611c82565b91506122ab8261226a565b602082019050919050565b600060208201905081810360008301526122cf81612293565b9050919050565b7f4e487b7100000000000000000000000000000000000000000000000000000000600052601160045260246000fd5b600061231082611d29565b91507fffffffffffffffffffffffffffffffffffffffffffffffffffffffffffffffff8203612342576123416122d6565b5b600182019050919050565b600061235882611d29565b915061236383611d29565b925082820190508082111561237b5761237a6122d6565b5b92915050565b600081905092915050565b60008190508160005260206000209050919050565b600081546123ae816121cd565b6123b88186612381565b945060018216600081146123d357600181146123e85761241b565b60ff198316865281151582028601935061241b565b6123f18561238c565b60005b83811015612413578154818901526001820191506020810190506123f4565b838801955050505b50505092915050565b600061242f82611c77565b6124398185612381565b9350612449818560208601611c93565b80840191505092915050565b600061246182856123a1565b915061246d8284612424565b91508190509392505050565b600060608201905061248e6000830186611dbe565b61249b6020830185611e54565b6124a86040830184611dbe565b949350505050565b7f596f75206172656e277420746865206f776e6572000000000000000000000000600082015250565b60006124e6601483611c82565b91506124f1826124b0565b602082019050919050565b60006020820190508181036000830152612515816124d9565b9050919050565b60006040820190506125316000830185611e54565b61253e6020830184611e54565b9392505050565b60006125518285612424565b915061255d8284612424565b91508190509392505050565b7f4e487b7100000000000000000000000000000000000000000000000000000000600052601260045260246000fd5b60006020601f8301049050919050565b600082821b905092915050565b6000600883026125e57fffffffffffffffffffffffffffffffffffffffffffffffffffffffffffffffff826125a8565b6125ef86836125a8565b95508019841693508086168417925050509392505050565b6000819050919050565b600061262c61262761262284611d29565b612607565b611d29565b9050919050565b6000819050919050565b61264683612611565b61265a61265282612633565b8484546125b5565b825550505050565b600090565b61266f612662565b61267a81848461263d565b505050565b5b8181101561269e57612693600082612667565b600181019050612680565b5050565b601f8211156126e3576126b48161238c565b6126bd84612598565b810160208510156126cc578190505b6126e06126d885612598565b83018261267f565b50505b505050565b600082821c905092915050565b6000612706600019846008026126e8565b1980831691505092915050565b600061271f83836126f5565b9150826002028217905092915050565b61273882611c77565b67ffffffffffffffff81111561275157612750611fb0565b5b61275b82546121cd565b6127668282856126a2565b600060209050601f8311600181146127995760008415612787578287015190505b6127918582612713565b8655506127f9565b601f1984166127a78661238c565b60005b828110156127cf578489015182556001820191506020850194506020810190506127aa565b868310156127ec57848901516127e8601f8916826126f5565b8355505b6001600288020188555050505b505050505050565b600081519050919050565b600082825260208201905092915050565b600061282882612801565b612832818561280c565b9350612842818560208601611c93565b61284b81611cbd565b840191505092915050565b600060808201905061286b6000830187611dbe565b6128786020830186611dbe565b6128856040830185611e54565b8181036060830152612897818461281d565b905095945050505050565b6000815190506128b181611be8565b92915050565b6000602082840312156128cd576128cc611bb2565b5b60006128db848285016128a2565b91505092915050565b60006040820190506128f96000830185611dbe565b6129066020830184611e54565b939250505056fea2646970667358221220b303eb0d6fd8dd7880b2573c2fc3b7a0b8269e9f17b01b32dcfcda6348b9aebd64736f6c63430008140033",
  "linkReferences": {},
  "deployedLinkReferences": {}
}